:1000000048EF01F00000000000EF00F000000000E9
:0A0010000000000000000000F3D71C
:10001C00A69C19C0A9FFA69EA680A8CF00F012002E
:10002C00006A81B0002A00C001F0010E006E015080
:10003C0004E000360090FF0FFBD700508112006ADD
:10004C0081B0002A00C001F0010E006E015004E0E6
:10005C0000360090FF0FFBD7001E00508116026A7D
:10006C00036A800E0318006E800E1A18005C02E101
:10007C001950025C22E2006A81B2002A00C001F031
:10008C00010E006E015004E000360090FF0FFBD70C
:10009C0000508112006A81B2002A00C001F0010EEA
:1000AC00006E015004E000360090FF0FFBD7001EDD
:0C00BC0000508116024A032AD4D712001B
:1000C8001750181010E19C0E0C6ED70E0D6E0D2EE9
:1000D800FED70C2EFCD71750181005E0010E006E45
:0C00E800000E016E02D0006A016A1200D6
:1000F400A6A202D00000FCD7A69C17C0A9FF18C076
:10010400A8FFA69EA684F2CF00F0F29E550EA76E1D
:10011400AA0EA76EA68200BE02D0F29E01D0F28E75
:04012400A69412008B
:10012800006A81B4002A00C001F0010E006E01507F
:1001380004E000360090FF0FFBD700508112006AE0
:1001480081B6002A00C001F0010E006E015004E0E3
:1001580000360090FF0FFBD700508112006A81B86B
:10016800002A00C001F0010E006E015004E00036C4
:100178000090FF0FFBD700508112006A93B0002A4D
:1001880000C001F0010E006E015004E0003600903E
:10019800FF0FFBD700509312006A93B2002A00C0E9
:1001A80001F0010E006E015004E000360090FF0FD0
:1001B800FBD700509312006A81B0002A00C001F0FA
:1001C800010E006E015004E000360090FF0FFBD7CF
:1001D800001E00508116196A1A6A24DF060E0B6E7B
:1001E800130E0C6EAD0E0D6E0D2EFED70C2EFCD719
:1001F8000B2EFAD700000000010E176E000E186EC5
:10020800800E1818006E800E005C02E10A0E175C62
:1002180015E217C019F018C01AF004DF020E0B6EB1
:10022800040E0C6EBA0E0D6E0D2EFED70C2EFCD7DA
:100238000B2EFAD70000174A182AE2D7196A1A6A49
:10024800F1DE060E0B6E130E0C6EAD0E0D6E0D2E3E
:10025800FED70C2EFCD70B2EFAD700000000000E9C
:10026800196ED8DE00C015F0000E166E15C019F014
:0802780016C01AF0D7DE1200D7
:100280000900F5CFE6FF0006FBE10106F9E11200E7
:100290004BDF000E81B6010E176E186A15DF005095
:1002A00001103AE0800E006E800E1618005C02E12C
:1002B000155000080BE2800E1618006E800E005CD0
:1002C00002E1050E155C02E2154A162A000E161808
:1002D00002E1000E151804E1020E156E000E166EF6
:1002E00081B402D0156A166A000E176E15C018F098
:1002F00001DF15C019F016C01AF098DE030E0B6E60
:100300008A0E0C6E550E0D6E0D2EFED70C2EFCD7E0
:100310000B2EFAD700000000000E81B8010E176EF8
:10032000186AD2DE0050011033E0800E006E800E9D
:100330001618005C02E11550010804E2010E155E7A
:10034000000E165A000E161802E1000E151804E1F0
:10035000010E156E000E166E81B402D0156A166A73
:10036000000E176E15C018F0C5DE15C019F016C0C6
:100370001AF05CDE030E0B6E8A0E0C6E550E0D6EBF
:100380000D2EFED70C2EFCD70B2EFAD70000000046
:0403900080D7FFD73C
:020000040030CA
:0D000100021F1EFF8381FF0FC00FE00F40A4
:00000001FF
